{
  "transactions": [
    {
      "hash": "0x0235d78cf5e21a163094df6b7631ce9b9c6e2d3b76a44b0783e35c6de99c2b93",
      "transactionType": "CALL",
      "contractName": null,
      "contractAddress": "0xc02aaa39b223fe8d0a0e5c4f27ead9083c756cc2",
      "function": "approve(address,uint256)",
      "arguments": [
        "0x4cAe23BDa2d0319970399C0ec5bb02486B119B1D",
        "1000000000000000000"
      ],
      "transaction": {
        "from": "0x63bd0edf9b020ccaed2cbfb6e119bc7b3e88e0e3",
        "to": "0xc02aaa39b223fe8d0a0e5c4f27ead9083c756cc2",
        "gas": "0xf879",
        "value": "0x0",
        "input": "0x095ea7b30000000000000000000000004cae23bda2d0319970399c0ec5bb02486b119b1d0000000000000000000000000000000000000000000000000de0b6b3a7640000",
        "nonce": "0x0",
        "chainId": "0x1"
      },
      "additionalContracts": [],
      "isFixedGasLimit": false
    },
    {
      "hash": "0xf25506e60653be6870cc05a02794ee2986b99601f01804284134266604e01915",
      "transactionType": "CALL",
      "contractName": null,
      "contractAddress": "0x4cae23bda2d0319970399c0ec5bb02486b119b1d",
      "function": "lockAndQuote(address,address,uint256,address)",
      "arguments": [
        "0xC02aaA39b223FE8D0A0e5C4F27eAD9083C756Cc2",
        "0xdAC17F958D2ee523a2206206994597C13D831ec7",
        "1000000000000000000",
        "0x63bd0EDF9B020CCAEd2cBfB6E119Bc7b3e88e0e3"
      ],
      "transaction": {
        "from": "0x63bd0edf9b020ccaed2cbfb6e119bc7b3e88e0e3",
        "to": "0x4cae23bda2d0319970399c0ec5bb02486b119b1d",
        "gas": "0x1eda5",
        "value": "0x0",
        "input": "0xdae409e8000000000000000000000000c02aaa39b223fe8d0a0e5c4f27ead9083c756cc2000000000000000000000000dac17f958d2ee523a2206206994597c13d831ec70000000000000000000000000000000000000000000000000de0b6b3a764000000000000000000000000000063bd0edf9b020ccaed2cbfb6e119bc7b3e88e0e3",
        "nonce": "0x1",
        "chainId": "0x1"
      },
      "additionalContracts": [],
      "isFixedGasLimit": false
    }
  ],
  "receipts": [
    {
      "status": "0x1",
      "cumulativeGasUsed": "0xb3e4",
      "logs": [
        {
          "address": "0xc02aaa39b223fe8d0a0e5c4f27ead9083c756cc2",
          "topics": [
            "0x8c5be1e5ebec7d5bd14f71427d1e84f3dd0314c0f7b2291e5b200ac8c7c3b925",
            "0x00000000000000000000000063bd0edf9b020ccaed2cbfb6e119bc7b3e88e0e3",
            "0x0000000000000000000000004cae23bda2d0319970399c0ec5bb02486b119b1d"
          ],
          "data": "0x0000000000000000000000000000000000000000000000000de0b6b3a7640000",
          "blockHash": "0xe671334dd652e2ff30d58e28393133c2f534bfa2e6d1d571a07b97f91548e940",
          "blockNumber": "0x16305a5",
          "transactionHash": "0x0235d78cf5e21a163094df6b7631ce9b9c6e2d3b76a44b0783e35c6de99c2b93",
          "transactionIndex": "0x0",
          "logIndex": "0x0",
          "removed": false
        }
      ],
      "logsBloom": "0x00000000000000000000000000000000000000000000000000000000000000000000000000000000000000020000000002000000080000000000000000200000000000000000000000000000000000000000000400000000000000000000000000000000000100000000000000000000200000000000000000000000000000000000010000000000000000000000000000000000000000000000001000000000020000000000000000000000000000000000000000000000000000000000000000000000000000000000000000000000000000000000000000000000000000000010200000000000000000000000000000000000000000000000000000000000",
      "type": "0x2",
      "transactionHash": "0x0235d78cf5e21a163094df6b7631ce9b9c6e2d3b76a44b0783e35c6de99c2b93",
      "transactionIndex": "0x0",
      "blockHash": "0xe671334dd652e2ff30d58e28393133c2f534bfa2e6d1d571a07b97f91548e940",
      "blockNumber": "0x16305a5",
      "gasUsed": "0xb3e4",
      "effectiveGasPrice": "0x0",
      "from": "0x63bd0edf9b020ccaed2cbfb6e119bc7b3e88e0e3",
      "to": "0xc02aaa39b223fe8d0a0e5c4f27ead9083c756cc2",
      "contractAddress": null
    },
    {
      "status": "0x1",
      "cumulativeGasUsed": "0x16564",
      "logs": [
        {
          "address": "0xc02aaa39b223fe8d0a0e5c4f27ead9083c756cc2",
          "topics": [
            "0xddf252ad1be2c89b69c2b068fc378daa952ba7f163c4a11628f55a4df523b3ef",
            "0x00000000000000000000000063bd0edf9b020ccaed2cbfb6e119bc7b3e88e0e3",
            "0x0000000000000000000000004cae23bda2d0319970399c0ec5bb02486b119b1d"
          ],
          "data": "0x0000000000000000000000000000000000000000000000000de0b6b3a7640000",
          "blockHash": "0xee4de0cedc6211b809ff0fcce89e1502efcb2a895952b1495aed906aaaff3402",
          "blockNumber": "0x16305a6",
          "transactionHash": "0xf25506e60653be6870cc05a02794ee2986b99601f01804284134266604e01915",
          "transactionIndex": "0x0",
          "logIndex": "0x0",
          "removed": false
        },
        {
          "address": "0x4cae23bda2d0319970399c0ec5bb02486b119b1d",
          "topics": [
            "0x725dd8c1e7104226e93b143856e9a616acb94821d4f65af0c6aa414f81b3c8b8",
            "0x00000000000000000000000063bd0edf9b020ccaed2cbfb6e119bc7b3e88e0e3",
            "0x00000000000000000000000063bd0edf9b020ccaed2cbfb6e119bc7b3e88e0e3"
          ],
          "data": "0x000000000000000000000000c02aaa39b223fe8d0a0e5c4f27ead9083c756cc2000000000000000000000000dac17f958d2ee523a2206206994597c13d831ec70000000000000000000000000000000000000000000000000de0b6b3a7640000000000000000000000000000000000000000000000000000d8195d821b93c00000000000000000000000000000000000000000000000000000000000000000000000000000000000000000000000000000000000000000000000000068b55bdd",
          "blockHash": "0xee4de0cedc6211b809ff0fcce89e1502efcb2a895952b1495aed906aaaff3402",
          "blockNumber": "0x16305a6",
          "transactionHash": "0xf25506e60653be6870cc05a02794ee2986b99601f01804284134266604e01915",
          "transactionIndex": "0x0",
          "logIndex": "0x1",
          "removed": false
        }
      ],
      "logsBloom": "0x0000000000000000000000000000000000000000000000000000000000001000000000000000000000000002000000000200000008000000000000000000000000000000000000000000000800000000000000040000000000000000000000000000000000010000000000000000000020000000000000000000001000000000000001000000000000000000000000000000000000000000000000100000000000000000000000000000000000000000000000000000000000000000000100000000000a000000000000000000000000000000080000000000000000000000000020200000000000000000000000000000000400000000000000000000000000",
      "type": "0x2",
      "transactionHash": "0xf25506e60653be6870cc05a02794ee2986b99601f01804284134266604e01915",
      "transactionIndex": "0x0",
      "blockHash": "0xee4de0cedc6211b809ff0fcce89e1502efcb2a895952b1495aed906aaaff3402",
      "blockNumber": "0x16305a6",
      "gasUsed": "0x16564",
      "effectiveGasPrice": "0x0",
      "from": "0x63bd0edf9b020ccaed2cbfb6e119bc7b3e88e0e3",
      "to": "0x4cae23bda2d0319970399c0ec5bb02486b119b1d",
      "contractAddress": null
    }
  ],
  "libraries": [],
  "pending": [],
  "returns": {},
  "timestamp": 1756716069996,
  "chain": 1,
  "commit": null
}