{
  "transactions": [
    {
      "hash": "0x5fb53adae5ef19e66a1d11bf60b90de787de58b406415d970343214bc561d239",
      "transactionType": "CALL",
      "contractName": null,
      "contractAddress": "0xc02aaa39b223fe8d0a0e5c4f27ead9083c756cc2",
      "function": "approve(address,uint256)",
      "arguments": [
        "0x739353A77C0678c2bC51e1375c0e0853Ce790002",
        "1000000000000000000"
      ],
      "transaction": {
        "from": "0x63bd0edf9b020ccaed2cbfb6e119bc7b3e88e0e3",
        "to": "0xc02aaa39b223fe8d0a0e5c4f27ead9083c756cc2",
        "gas": "0xf868",
        "value": "0x0",
        "input": "0x095ea7b3000000000000000000000000739353a77c0678c2bc51e1375c0e0853ce7900020000000000000000000000000000000000000000000000000de0b6b3a7640000",
        "nonce": "0xa",
        "chainId": "0x1"
      },
      "additionalContracts": [],
      "isFixedGasLimit": false
    },
    {
      "hash": "0x1179b350d6cd1b5303182557439bdadc0455825f72283f2fb923b263f8235894",
      "transactionType": "CALL",
      "contractName": null,
      "contractAddress": "0x739353a77c0678c2bc51e1375c0e0853ce790002",
      "function": "lockAndQuote(address,address,uint256,address)",
      "arguments": [
        "0xC02aaA39b223FE8D0A0e5C4F27eAD9083C756Cc2",
        "0xdAC17F958D2ee523a2206206994597C13D831ec7",
        "1000000000000000000",
        "0x63bd0EDF9B020CCAEd2cBfB6E119Bc7b3e88e0e3"
      ],
      "transaction": {
        "from": "0x63bd0edf9b020ccaed2cbfb6e119bc7b3e88e0e3",
        "to": "0x739353a77c0678c2bc51e1375c0e0853ce790002",
        "gas": "0x1e120",
        "value": "0x0",
        "input": "0xdae409e8000000000000000000000000c02aaa39b223fe8d0a0e5c4f27ead9083c756cc2000000000000000000000000dac17f958d2ee523a2206206994597c13d831ec70000000000000000000000000000000000000000000000000de0b6b3a764000000000000000000000000000063bd0edf9b020ccaed2cbfb6e119bc7b3e88e0e3",
        "nonce": "0xb",
        "chainId": "0x1"
      },
      "additionalContracts": [],
      "isFixedGasLimit": false
    }
  ],
  "receipts": [
    {
      "status": "0x1",
      "cumulativeGasUsed": "0xb3d8",
      "logs": [
        {
          "address": "0xc02aaa39b223fe8d0a0e5c4f27ead9083c756cc2",
          "topics": [
            "0x8c5be1e5ebec7d5bd14f71427d1e84f3dd0314c0f7b2291e5b200ac8c7c3b925",
            "0x00000000000000000000000063bd0edf9b020ccaed2cbfb6e119bc7b3e88e0e3",
            "0x000000000000000000000000739353a77c0678c2bc51e1375c0e0853ce790002"
          ],
          "data": "0x0000000000000000000000000000000000000000000000000de0b6b3a7640000",
          "blockHash": "0xc91f02e73b56fbf358d0b7762c8a03ca137ceefe39bf6c0025d64487a50c9886",
          "blockNumber": "0x16305b2",
          "transactionHash": "0x5fb53adae5ef19e66a1d11bf60b90de787de58b406415d970343214bc561d239",
          "transactionIndex": "0x0",
          "logIndex": "0x0",
          "removed": false
        }
      ],
      "logsBloom": "0x00000000000000000000000000000000000000000000000000000000000000000000000000000000000000020000000002000000080000000000000000200000000000000000000000000000000000000000000000000000000000000000000000000000020000000000000000000000000000000000000000000000000000000000010000000000000000000000000000000000000000000000001000000000020000000000000000000000000000000000000000000000000000000000000000000200000004000000000000000000000000000000000000000000000000000010200000000000000000000000000000000000000000000000000000000000",
      "type": "0x2",
      "transactionHash": "0x5fb53adae5ef19e66a1d11bf60b90de787de58b406415d970343214bc561d239",
      "transactionIndex": "0x0",
      "blockHash": "0xc91f02e73b56fbf358d0b7762c8a03ca137ceefe39bf6c0025d64487a50c9886",
      "blockNumber": "0x16305b2",
      "gasUsed": "0xb3d8",
      "effectiveGasPrice": "0x0",
      "from": "0x63bd0edf9b020ccaed2cbfb6e119bc7b3e88e0e3",
      "to": "0xc02aaa39b223fe8d0a0e5c4f27ead9083c756cc2",
      "contractAddress": null
    },
    {
      "status": "0x1",
      "cumulativeGasUsed": "0x148fa",
      "logs": [
        {
          "address": "0xc02aaa39b223fe8d0a0e5c4f27ead9083c756cc2",
          "topics": [
            "0xddf252ad1be2c89b69c2b068fc378daa952ba7f163c4a11628f55a4df523b3ef",
            "0x00000000000000000000000063bd0edf9b020ccaed2cbfb6e119bc7b3e88e0e3",
            "0x000000000000000000000000739353a77c0678c2bc51e1375c0e0853ce790002"
          ],
          "data": "0x0000000000000000000000000000000000000000000000000de0b6b3a7640000",
          "blockHash": "0x9ada2297f973f703e0bf500573b7684083bc3957b1e8ae870ee1efa8826e48ec",
          "blockNumber": "0x16305b3",
          "transactionHash": "0x1179b350d6cd1b5303182557439bdadc0455825f72283f2fb923b263f8235894",
          "transactionIndex": "0x0",
          "logIndex": "0x0",
          "removed": false
        },
        {
          "address": "0x739353a77c0678c2bc51e1375c0e0853ce790002",
          "topics": [
            "0x725dd8c1e7104226e93b143856e9a616acb94821d4f65af0c6aa414f81b3c8b8",
            "0x00000000000000000000000063bd0edf9b020ccaed2cbfb6e119bc7b3e88e0e3",
            "0x00000000000000000000000063bd0edf9b020ccaed2cbfb6e119bc7b3e88e0e3"
          ],
          "data": "0x000000000000000000000000c02aaa39b223fe8d0a0e5c4f27ead9083c756cc2000000000000000000000000dac17f958d2ee523a2206206994597c13d831ec70000000000000000000000000000000000000000000000000de0b6b3a76400000000000000000000000000000000000000000000000000000000000000ed9a7c00000000000000000000000000000000000000000000000000000000000000030000000000000000000000000000000000000000000000000000000068b565c9",
          "blockHash": "0x9ada2297f973f703e0bf500573b7684083bc3957b1e8ae870ee1efa8826e48ec",
          "blockNumber": "0x16305b3",
          "transactionHash": "0x1179b350d6cd1b5303182557439bdadc0455825f72283f2fb923b263f8235894",
          "transactionIndex": "0x0",
          "logIndex": "0x1",
          "removed": false
        }
      ],
      "logsBloom": "0x00000000000000000400000000000000000000000000000000000000000010000000000000000000000000020000000002000000080000000000000000000000000000000000000000000008000000000000000000000000000000000000000000000000020000000000000002000000000000000000000000000010000000000000010000000000000000000000000000000000000000000000001000000000000000000080000000000000000000000000000000000000000000000001000000000202000004000000000000000000000000080000000000000000000000000000200000000000000000000000000000000000000000000000000000000000",
      "type": "0x2",
      "transactionHash": "0x1179b350d6cd1b5303182557439bdadc0455825f72283f2fb923b263f8235894",
      "transactionIndex": "0x0",
      "blockHash": "0x9ada2297f973f703e0bf500573b7684083bc3957b1e8ae870ee1efa8826e48ec",
      "blockNumber": "0x16305b3",
      "gasUsed": "0x148fa",
      "effectiveGasPrice": "0x0",
      "from": "0x63bd0edf9b020ccaed2cbfb6e119bc7b3e88e0e3",
      "to": "0x739353a77c0678c2bc51e1375c0e0853ce790002",
      "contractAddress": null
    }
  ],
  "libraries": [],
  "pending": [],
  "returns": {},
  "timestamp": 1756718610123,
  "chain": 1,
  "commit": null
}