{
  "transactions": [
    {
      "hash": "0xa6f4be42988d3ea89046e2baa366ce71b87d5ee5dc3349ce0c147f026b07b39a",
      "transactionType": "CALL",
      "contractName": null,
      "contractAddress": "0xc02aaa39b223fe8d0a0e5c4f27ead9083c756cc2",
      "function": "approve(address,uint256)",
      "arguments": [
        "0x4cAe23BDa2d0319970399C0ec5bb02486B119B1D",
        "1000000000000000000"
      ],
      "transaction": {
        "from": "0x63bd0edf9b020ccaed2cbfb6e119bc7b3e88e0e3",
        "to": "0xc02aaa39b223fe8d0a0e5c4f27ead9083c756cc2",
        "gas": "0xf879",
        "value": "0x0",
        "input": "0x095ea7b30000000000000000000000004cae23bda2d0319970399c0ec5bb02486b119b1d0000000000000000000000000000000000000000000000000de0b6b3a7640000",
        "nonce": "0x2",
        "chainId": "0x1"
      },
      "additionalContracts": [],
      "isFixedGasLimit": false
    },
    {
      "hash": "0x19c0a9079aed69b46af37f98f9353b01182d6a58036542049c83908c3558b081",
      "transactionType": "CALL",
      "contractName": null,
      "contractAddress": "0x4cae23bda2d0319970399c0ec5bb02486b119b1d",
      "function": "lockAndQuote(address,address,uint256,address)",
      "arguments": [
        "0xC02aaA39b223FE8D0A0e5C4F27eAD9083C756Cc2",
        "0xdAC17F958D2ee523a2206206994597C13D831ec7",
        "1000000000000000000",
        "0x63bd0EDF9B020CCAEd2cBfB6E119Bc7b3e88e0e3"
      ],
      "transaction": {
        "from": "0x63bd0edf9b020ccaed2cbfb6e119bc7b3e88e0e3",
        "to": "0x4cae23bda2d0319970399c0ec5bb02486b119b1d",
        "gas": "0x19161",
        "value": "0x0",
        "input": "0xdae409e8000000000000000000000000c02aaa39b223fe8d0a0e5c4f27ead9083c756cc2000000000000000000000000dac17f958d2ee523a2206206994597c13d831ec70000000000000000000000000000000000000000000000000de0b6b3a764000000000000000000000000000063bd0edf9b020ccaed2cbfb6e119bc7b3e88e0e3",
        "nonce": "0x3",
        "chainId": "0x1"
      },
      "additionalContracts": [],
      "isFixedGasLimit": false
    }
  ],
  "receipts": [
    {
      "status": "0x1",
      "cumulativeGasUsed": "0xb3e4",
      "logs": [
        {
          "address": "0xc02aaa39b223fe8d0a0e5c4f27ead9083c756cc2",
          "topics": [
            "0x8c5be1e5ebec7d5bd14f71427d1e84f3dd0314c0f7b2291e5b200ac8c7c3b925",
            "0x00000000000000000000000063bd0edf9b020ccaed2cbfb6e119bc7b3e88e0e3",
            "0x0000000000000000000000004cae23bda2d0319970399c0ec5bb02486b119b1d"
          ],
          "data": "0x0000000000000000000000000000000000000000000000000de0b6b3a7640000",
          "blockHash": "0xfbdd32cf172fff22b844b73c4f7b298f9dba48679d6171fc9292decf4f8ff762",
          "blockNumber": "0x16305a7",
          "transactionHash": "0xa6f4be42988d3ea89046e2baa366ce71b87d5ee5dc3349ce0c147f026b07b39a",
          "transactionIndex": "0x0",
          "logIndex": "0x0",
          "removed": false
        }
      ],
      "logsBloom": "0x00000000000000000000000000000000000000000000000000000000000000000000000000000000000000020000000002000000080000000000000000200000000000000000000000000000000000000000000400000000000000000000000000000000000100000000000000000000200000000000000000000000000000000000010000000000000000000000000000000000000000000000001000000000020000000000000000000000000000000000000000000000000000000000000000000000000000000000000000000000000000000000000000000000000000000010200000000000000000000000000000000000000000000000000000000000",
      "type": "0x2",
      "transactionHash": "0xa6f4be42988d3ea89046e2baa366ce71b87d5ee5dc3349ce0c147f026b07b39a",
      "transactionIndex": "0x0",
      "blockHash": "0xfbdd32cf172fff22b844b73c4f7b298f9dba48679d6171fc9292decf4f8ff762",
      "blockNumber": "0x16305a7",
      "gasUsed": "0xb3e4",
      "effectiveGasPrice": "0x0",
      "from": "0x63bd0edf9b020ccaed2cbfb6e119bc7b3e88e0e3",
      "to": "0xc02aaa39b223fe8d0a0e5c4f27ead9083c756cc2",
      "contractAddress": null
    },
    {
      "status": "0x1",
      "cumulativeGasUsed": "0x12298",
      "logs": [
        {
          "address": "0xc02aaa39b223fe8d0a0e5c4f27ead9083c756cc2",
          "topics": [
            "0xddf252ad1be2c89b69c2b068fc378daa952ba7f163c4a11628f55a4df523b3ef",
            "0x00000000000000000000000063bd0edf9b020ccaed2cbfb6e119bc7b3e88e0e3",
            "0x0000000000000000000000004cae23bda2d0319970399c0ec5bb02486b119b1d"
          ],
          "data": "0x0000000000000000000000000000000000000000000000000de0b6b3a7640000",
          "blockHash": "0x6737c553d94413730bf306212e3aa0419096f0aae9093fd66ddd1311ba3f3dc1",
          "blockNumber": "0x16305a8",
          "transactionHash": "0x19c0a9079aed69b46af37f98f9353b01182d6a58036542049c83908c3558b081",
          "transactionIndex": "0x0",
          "logIndex": "0x0",
          "removed": false
        },
        {
          "address": "0x4cae23bda2d0319970399c0ec5bb02486b119b1d",
          "topics": [
            "0x725dd8c1e7104226e93b143856e9a616acb94821d4f65af0c6aa414f81b3c8b8",
            "0x00000000000000000000000063bd0edf9b020ccaed2cbfb6e119bc7b3e88e0e3",
            "0x00000000000000000000000063bd0edf9b020ccaed2cbfb6e119bc7b3e88e0e3"
          ],
          "data": "0x000000000000000000000000c02aaa39b223fe8d0a0e5c4f27ead9083c756cc2000000000000000000000000dac17f958d2ee523a2206206994597c13d831ec70000000000000000000000000000000000000000000000000de0b6b3a7640000000000000000000000000000000000000000000000000000d8195d821b93c00000000000000000000000000000000000000000000000000000000000000000010000000000000000000000000000000000000000000000000000000068b55e39",
          "blockHash": "0x6737c553d94413730bf306212e3aa0419096f0aae9093fd66ddd1311ba3f3dc1",
          "blockNumber": "0x16305a8",
          "transactionHash": "0x19c0a9079aed69b46af37f98f9353b01182d6a58036542049c83908c3558b081",
          "transactionIndex": "0x0",
          "logIndex": "0x1",
          "removed": false
        }
      ],
      "logsBloom": "0x0000000000000000000000000000000000000000000000000000000000001000000000000000000000000002000000000200000008000000000000000000000000000000000000000000000800000000000000040000000000000000000000000000000000010000000000000000000020000000000000000000001000000000000001000000000000000000000000000000000000000000000000100000000000000000000000000000000000000000000000000000000000000000000100000000000a000000000000000000000000000000080000000000000000000000000020200000000000000000000000000000000400000000000000000000000000",
      "type": "0x2",
      "transactionHash": "0x19c0a9079aed69b46af37f98f9353b01182d6a58036542049c83908c3558b081",
      "transactionIndex": "0x0",
      "blockHash": "0x6737c553d94413730bf306212e3aa0419096f0aae9093fd66ddd1311ba3f3dc1",
      "blockNumber": "0x16305a8",
      "gasUsed": "0x12298",
      "effectiveGasPrice": "0x0",
      "from": "0x63bd0edf9b020ccaed2cbfb6e119bc7b3e88e0e3",
      "to": "0x4cae23bda2d0319970399c0ec5bb02486b119b1d",
      "contractAddress": null
    }
  ],
  "libraries": [],
  "pending": [],
  "returns": {},
  "timestamp": 1756716674153,
  "chain": 1,
  "commit": null
}